S01C000044657420696E74656C6C6967656E7465206875732E7372656357
S1130000E9C0000006C1000004C1000002C10000F4
S113001000C10000FEC00000FCC00000FAC00000E7
S1130020F8C00000F6C00000F4C00000F2C00000F8
S1130030F0C00000EEC00000ECC00000EAC0000008
S1130040E8C00000E6C00000E4C00000E2C0000018
S1130050E0C00000DEC00000DCC00000DAC0000028
S1130060D8C00000D6C00000D4C00000D2C0000038
S1130070D0C00000CEC00000CCC00000CAC0000048
S1130080C8C00000C6C00000C4C00000C2C0000058
S1130090C0C00000BEC00000BCC00000BAC0000068
S11300A0B8C00000B6C00000B4C00000B2C0000078
S11300B0B0C00000AEC00000ACC00000AAC0000088
S11300C0A8C00000A6C00000A4C00000A2C0000098
S11300D0A0C000009EC000009CC000009AC00000A8
S11300E098C000009901C901C901C901A501C9014C
S11300F0B101BD01C901C901C901C901C901C901D0
S1130100C901C901C901C901C901C901C901C9019B
S1130110C901C901C901C901C901C901C901C9018B
S1130120C901C901C901C901C901C901C901C9017B
S1130130C901C901C901C901C901C901C901C9016B
S1130140C901C901C901C901C901C901C901C9015B
S1130150C901C901C901C901C901C901C901C9014B
S1130160C901C9019C01C901C901C901A801C90189
S1130170B401C001C901C901C901C901C901C90149
S1130180C901C901C901C901C901C901C901C9011B
S1130190C901C901C901C901C901C901C901C9010B
S11301A0C901C9019F01C901C901C901AB01C90143
S11301B0B701C301C901C901C901C901C901C90103
S11301C0C901C901A201C901C901C901AE01C9011D
S11301D0BA01C60111241FBECFEFD1E2DEBFCDBFED
S11301E000E00CBF12E0A0E0B2E0E0EAF8E000E0DA
S11301F00BBF02C007900D92A830B107D9F722E0D7
S1130200A8E0B2E001C01D92A431B207E1F784D1A5
S113021045C3F6CECF93DF93CDB7DEB787E091E049
S11302202FE0FC01208388E091E028E031E0F9012F
S11302302081206FFC0120830000DF91CF9108957D
S1130240CF93DF931F92CDB7DEB788E091E0FC0136
S11302508081807F898380910002909101028230A5
S11302609105A9F0833091051CF4019739F02AC057
S113027083309105A9F00497E1F024C08981876057
S1130280898388E091E02981FC0120831BC0898156
S11302908B60898388E091E02981FC01208312C06E
S11302A089818D60898388E091E02981FC01208324
S11302B009C089818E60898388E091E02981FC01ED
S11302C02083000080910002909101020196909396
S11302D0010280930002809100029091010205972F
S11302E034F081E090E090930102809300020000DA
S11302F00F90DF91CF910895CF93DF931F921F92B8
S1130300CDB7DEB78A838A81882F90E0092E000C4E
S1130310AA0BBB0B47E750E027E730E0841B950BA3
S113032028173907B0F1FC018827EE58FF4F8F4F8B
S113033098C281E3898330C084E389832DC087E335
S113034089832AC08AE2898327C082E3898324C0FF
S113035085E3898321C088E389831EC080E3898380
S11303601BC083E3898318C086E3898315C089E3AE
S1130370898312C083E289830FC081E489830CC01E
S113038082E4898309C083E4898306C084E4898381
S113039003C08EE28983000089810F900F90DF9162
S11303A0CF910895CF93DF931F92CDB7DEB786E048
S11303B091E0FC01808189838981803F18F48981DF
S11303C09BDF01C08EE20F90DF91CF910895CF9310
S11303D0DF93CDB7DEB72F970FB6F894DEBF0FBE0D
S11303E0CDBF8F878F858E3209F470C08F85882F9B
S11303F090E076D080E090E0A8ECB3E489839A831F
S1130400AB83BC8320E030E04AE755E469817A811C
S11304108B819C819BD1DC01CB018D839E83AF8337
S1130420B88720E030E040E85FE36D817E818F8112
S113043098850BD188232CF481E090E09A878987F2
S11304403BC020E03FEF4FE757E46D817E818F8111
S1130450988578D118163CF520E030E040E251E46C
S113046069817A818B819C8171D1DC01CB01BC01D2
S1130470CD01EFD0DC01CB019A8789870FC080E9D9
S113048091E09C878B878B859C850197F1F79C87EE
S11304908B8789859A8501979A87898789859A8523
S11304A0892B69F713C06D817E818F819885D1D0A6
S11304B0DC01CB019A87898789859A859E878D87F8
S11304C08D859E850197F1F79E878D8700002F9675
S11304D00FB6F894DEBF0FBECDBFDF91CF91089564
S11304E0CF93DF931F92CDB7DEB789838981882F9D
S11304F090E041D0909309028093080200000F908D
S1130500DF91CF910895CF93DF93CDB7DEB782DE2D
S11305100000DF91CF910895CF93DF93CDB7DEB77D
S1130520F2DF8EDE3FDF53DFFCCFCF93DF931F92EA
S11305301F92CDB7DEB79A83898389819A8144E07B
S113054050E062E072E09CD1892B31F410920D02EC
S113055010920C0281E00AC080910C0290910D026D
S1130560019690930D0280930C0280E00F900F90FF
S1130570DF91CF910895CF93DF931F92CDB7DEB76C
S113058089838981833241F089818A3229F0898182
S1130590882F90E03DD038C089818A3241F444E00C
S11305A050E060E070E080E192E063D12DC0898189
S11305B0833251F580910C0290910D0203972CF037
S11305C080910E0290910F021FC080E192E0ADDF96
S11305D0882F90E090930F0280930E0244E050E045
S11305E060E070E080E192E044D180910E0290914D
S11305F00F02892B49F010920D0210920C02809187
S11306000E0290910F0200C00F90DF91CF910895D8
S1130610CF93DF931F92CDB7DEB7898380910A020F
S113062090910B02805F9D4F2981FC012083809172
S11306300A0290910B02019690930B0280930A0296
S113064000000F90DF91CF9108952FD008F481E03E
S1130650089557D088F09F5790F0B92F9927B75134
S1130660A0F0D1F0660F771F881F991F1AF0BA9572
S1130670C9F712C0B13081F05ED0B1E008955BC01B
S1130680672F782F8827B85F39F0B93FCCF3869568
S113069077956795B395D9F73EF4909580957095C5
S11306A061957F4F8F4F9F4F0895990F0008550F05
S11306B0AA0BE0E8FEEF16161706E807F907C0F0E4
S11306C012161306E407F50798F0621B730B840BEC
S11306D0950B39F40A2661F0232B242B252B21F4C6
S11306E008950A2609F4A140A6958FEF811D811D66
S11306F0089557FD9058440F551F59F05F3F71F00E
S11307004795880F97FB991F61F09F3F79F0879574
S11307100895121613061406551FF2CF4695F1DFFD
S113072008C0161617061806991FF1CF869571058D
S1130730610508940895E894BB2766277727CB01C1
S113074097F90895B2DF08F48FEF08950BD078C0BD
S113075069D028F06ED018F0952309F05AC05FC014
S11307601124EACFC6DFA0F3959FD1F3950F50E093
S1130770551F629FF001729FBB27F00DB11D639F4F
S1130780AA27F00DB11DAA1F649F6627B00DA11DF5
S1130790661F829F2227B00DA11D621F739FB00D9B
S11307A0A11D621F839FA00D611D221F749F33270B
S11307B0A00D611D231F849F600D211D822F762FA4
S11307C06A2F11249F5750408AF0E1F088234AF0A1
S11307D0EE0FFF1FBB1F661F771F881F91505040ED
S11307E0A9F79E3F510570F014C0A6CF5F3FECF30C
S11307F0983EDCF3869577956795B795F795E795D9
S11308009F5FC1F7FE2B880F911D9695879597F9E9
S1130810089597F99F6780E870E060E008959FEF7E
S113082080EC089500240A94161617061806090683
S1130830089500240A941216130614060506089552
S1130840092E0394000C11F4882352F0BB0F40F4DA
S1130850BF2B11F460FF04C06F5F7F4F8F4F9F4F1A
S11308600895EE0FFF1F881F8BBF0790F691E02DB0
S11308701994DC0101C06D9341505040E0F7089594
S1130880FB01DC014150504030F08D910190801902
S113089019F40020B9F7881B990B0895F894FFCF39
S10B08A0010031323334000081
S9030000FC
