S01C000044657420696E74656C6C6967656E7465206875732E7372656357
S1130000E9C0000006C1000004C1000002C10000F4
S113001000C10000FEC00000FCC00000FAC00000E7
S1130020F8C00000F6C00000F4C00000F2C00000F8
S1130030F0C00000EEC00000ECC00000EAC0000008
S1130040E8C00000E6C00000E4C00000E2C0000018
S1130050E0C00000DEC00000DCC00000DAC0000028
S1130060D8C00000D6C00000D4C00000D2C0000038
S1130070D0C00000CEC00000CCC00000CAC0000048
S1130080C8C00000C6C00000C4C00000C2C0000058
S1130090C0C00000BEC00000BCC00000BAC0000068
S11300A0B8C00000B6C00000B4C00000B2C0000078
S11300B0B0C00000AEC00000ACC00000AAC0000088
S11300C0A8C00000A6C00000A4C00000A2C0000098
S11300D0A0C000009EC000009CC000009AC00000A8
S11300E098C0000078017601760176015E01760100
S11300F066016E017601760176017601760176015C
S11301007601760176017601760176017601760133
S11301107601760176017601760176017601760123
S11301207601760176017601760176017601760113
S11301307601760176017601760176017601760103
S113014076017601760176017601760176017601F3
S113015076017601760176017601760176017601E3
S11301607601760158017601760176016001760107
S113017068017001760176017601760176017601D7
S113018076017601760176017601760176017601B3
S113019076017601760176017601760176017601A3
S11301A0760176015A0176017601760162017601C3
S11301B06A01720176017601760176017601760193
S11301C0760176015C01760176017601640176019F
S11301D06C01740111241FBECFEFD1E2DEBFCDBF8D
S11301E000E00CBF12E0A0E0B2E0EEECF4E000E0CE
S11301F00BBF02C007900D92AC30B107D9F722E0D3
S1130200ACE0B2E001C01D92A631B207E1F7C5D05F
S11302105CC1F6CE8FE080930701E8E0F1E08081D5
S1130220806F8083089580910801807F209100026F
S1130230309101022230310581F024F4213031055E
S113024041F016C02330310561F02430310569F0E6
S11302500FC08760809308010BC08B6080930801F6
S113026007C08D608093080103C08E6080930801ED
S113027080910002909101020196853091052CF441
S11302809093010280930002089581E090E090939E
S1130290010280930002089590E0FC01E757F10900
S11302A0E837F10518F58827EE58FF4F8F4FF7C050
S11302B084E3089587E308958AE2089582E3089524
S11302C085E3089588E3089580E3089583E308951A
S11302D086E3089589E3089583E2089581E4089507
S11302E082E4089583E4089584E408958EE20895F1
S11302F081E3089580910601803F10F4CDCF0895E5
S11303008EE208958E3259F090E040D02FEF87E8C6
S113031093E1215080409040E1F700C0000008952F
S11303208330910579F410920502109204028FEF44
S113033090E0909303028093020210920D021092B7
S11303400C020895029781F488E790E090930502E7
S11303508093040280E590E090930302809302026C
S113036010920D0210920C020895E0E8F0E08081F2
S1130370886A8083808189608083E1E8F0E08081FD
S11303808360808384B1806E84B9089590E054D0F2
S1130390C7CF08953FDFE9CF0895FCDF0F2EFCE8B7
S11303A0EF2EF12CF02D0AE810E0C8E8D0E080919F
S11303B0040290910502F7019183808380910202E7
S11303C090910302F8019183808380910C029091B3
S11303D00D029983888327DF8DDF94DFE8CF1092A5
S11303E011021092100244E050E066E072E05FD027
S11303F0892B39F410920F0210920E0281E090E0E2
S1130400089580910E0290910F02019690930F022D
S113041080930E0280E090E00895209110023091C4
S11304201102F901EE5EFD4F80832F5F3F4F309341
S11304301102209310020895833289F08A3219F050
S113044090E0EBDF25C084E0E2E1F2E0DF011D9201
S11304508A95E9F7109211021092100219C0809146
S11304600E0290910F020397A4F482E192E0B7DFA9
S113047024E0E2E1F2E0DF011D922A95E9F710920F
S1130480110210921002019739F082E090E0089571
S1130490089583E090E0089581E090E00895EE0FE0
S11304A0FF1F881F8BBF0790F691E02D1994FB0165
S11304B0DC014150504030F08D910190801919F4C5
S11104C00020B9F7881B990B0895F894FFCF1C
S10F04CE0100500078003132333400008B
S9030000FC
